:020000040000FA
:100000000C9463000C9402070C94DB060C948B0098
:100010000C948B000C948B000C948B000C9429078F
:100020000C948B000C948B000C948B000C948B0024
:100030000C948B000C948B000C948B000C948B0014
:100040000C9491060C948B000C94AB070C948507D0
:100050000C948B000C948B000C948B000C948B00F4
:100060000C948B000C948B000000000023002600F1
:10007000290000000000240027002A0000000008DA
:10008000000201000003040700000000000000005F
:10009000010204081020408001020408102001021F
:1000A0000408102000000000250028002B00040494
:1000B0000404040404040202020202020303030310
:1000C00003030200220811241FBECFEFD8E0DEBFD9
:1000D000CDBF16E0A0E0B1E0E0E1FEE102C0059096
:1000E0000D92AC33B107D9F727E0ACE3B6E001C01D
:1000F0001D92A33CB207E1F710E0C3E6D0E004C0D4
:100100002197FE010E94D20EC236D107C9F70E9484
:100110005E080C94060F0C940000833081F028F4E4
:10012000813099F08230A9F008958730A9F08830A5
:10013000C9F08430B1F4809180008F7D03C080913C
:1001400080008F7780938000089584B58F7784BD79
:10015000089584B58F7DFBCF8091B0008F77809319
:10016000B00008958091B0008F7DF9CF1F93CF9399
:10017000DF93282F30E0F901E458FF4F8491F90113
:10018000E057FF4FD491F901E255FF4FC491CC23C2
:10019000A9F0162F81110E948D00EC2FF0E0EE0FD8
:1001A000FF1FEC55FF4FA591B4918FB7F894EC91D8
:1001B000111108C0D095DE23DC938FBFDF91CF9162
:1001C0001F910895DE2BF8CFCF93DF9390E0FC01D1
:1001D000E057FF4F249182559F4FFC018491882363
:1001E000C9F090E0880F991FFC01EE58FF4FA591D0
:1001F000B491FC01EC55FF4FC591D49161110DC034
:100200009FB7F8948C91209582238C938881282322
:1002100028839FBFDF91CF910895623051F49FB73B
:10022000F8943C91822F809583238C93E8812E2B28
:10023000EFCF8FB7F894EC912E2B2C938FBFEACF92
:100240004F925F926F927F928F929F92AF92BF92E6
:10025000CF92DF92EF92FF920F931F93CF93DF9392
:1002600000D000D01F92CDB7DEB78C012A013B0130
:10027000809136058830C9F08F3F09F47FC00F9018
:100280000F900F900F900F90DF91CF911F910F91D2
:10029000FF90EF90DF90CF90BF90AF909F908F90A6
:1002A0007F906F905F904F900895E2ECF0E0849122
:1002B0008D8387FDE4CF61E088E00E94E4008D81BA
:1002C000882321F09D81923009F05CC14801B12C56
:1002D000A12C60E072E18AE790E0A50198010E94FC
:1002E000B30E29833A834B835C8369017A0181E0F1
:1002F000C81AD108E108F1089FEFC916D104E1043A
:10030000F10409F00CF413C160E472E48FE090E0B2
:10031000A50198010E94B30E69017A0181E0C81A13
:10032000D108E108F1089D81923009F098C08FEF63
:10033000C816D104E104F10409F00CF4DDC160E950
:1003400070ED83E090E0A50198010E94B30E690171
:100350007A0191E0C91AD108E108F1088FEFC816B7
:10036000D104E104F10411F00CF0A3C183E09091F9
:10037000B100987F892B8093B100E1C088E0809321
:100380003605E2ECF0E094919D839F3F09F477CF2E
:10039000913029F158F0923009F43FC08D8187FDEA
:1003A0006ECF61E088E00E94E4008CCF14BC15BCE5
:1003B00084B5826084BD85B5816085BDE6EBF0E0E3
:1003C000E491F0E0EE0FFF1FEC55FF4F8591949103
:1003D000E8E9F0E0E491E09369061D826CCF1092A9
:1003E000800010928100809181008860809381005C
:1003F00080918100816080938100E6EBF0E0E491E0
:10040000F0E0EE0FFF1FEC55FF4F85919491E8E966
:10041000F0E0E491E09368064ECF1092B0001092A5
:10042000B1008091B00082608093B0008091B100F3
:1004300081608093B100E6EBF0E0E491F0E0EE0F34
:10044000FF1FEC55FF4F8591949190936706809321
:100450006606E8E9F0E0E491E09365062CCF9FEFB3
:10046000C916D104E104F10409F00CF489C068E470
:1004700078EE81E090E0A50198010E94B30E690139
:100480007A0181E0C81AD108E108F1089D81992319
:1004900009F428C19FEFC916D104E104F10409F061
:1004A0000CF41EC162E17AE780E090E0A5019401BE
:1004B0000E94B30E69017A0181E0C81AD108E108EF
:1004C000F1089D81992309F4EBC08FEFC816D10480
:1004D000E104F10411F008F0BFC086E048CF64E207
:1004E00074EF80E090E0A50194010E94B30E6901D1
:1004F0007A0181E0C81AD108E108F10885E09FEF90
:10050000C916D104E104F10409F008F430CF62E126
:100510007AE780E090E0A50194010E94B30E6901A2
:100520007A0191E0C91AD108E108F108CECF81E043
:100530009D8191111CCF95B5987F892B85BD2FEF9B
:100540003FEFA901411451046104710409F043C053
:100550009D81913009F45EC0923009F46DC0911113
:100560008ECEC7BC209372063093730640937406F8
:100570005093750680916E00826080936E007FCEEE
:1005800082E0D6CFB12CA12C60E072E18AE790E046
:10059000A50198010E94B30E69017A0181E0C81A91
:1005A000D108E108F108C114D10491E0E906F10491
:1005B00004F591E08D81813011F680918100887F72
:1005C000892B809381002FEF3FEFA9014114510443
:1005D00061047104F9F0D801AA0FBB1FA3019201B5
:1005E0000E94D80E28EE33E040E050E00E94910EC9
:1005F000AFCF68E478EE81E090E0A50198010E9419
:10060000B30E69017A0181E0C81AD108E108F10846
:1006100093E0D0CFD0928900C092880020936E06DC
:1006200030936F06409370065093710680916F006F
:10063000826080936F0023CEC092B30020936A063D
:1006400030936B0640936C0650936D06809170005A
:1006500082608093700013CEC980DA80EB80FC80CA
:100660009AE0F594E794D794C7949A95D1F791E0DE
:10067000C91AD108E108F10887E079CEC980DA808B
:10068000EB80FC808AE0F594E794D794C7948A9530
:10069000D1F791E0C91AD108E108F10885E04BCF04
:1006A0008FEFC816D104E104F10409F038F784E0B3
:1006B00042CF68E478EE81E090E0A50198010E94C5
:1006C000B30E69017A0191E0C91AD108E108F10875
:1006D0008FEFC816D104E104F10411F00CF0FFCE45
:1006E00084E045CE8FEFC816D104E104F10411F087
:1006F0000CF0D8CE83E01FCF82E039CE3FB7F8941C
:100700008091610690916206A0916306B0916406A3
:1007100026B5A89B05C02F3F19F00196A11DB11D5C
:100720003FBFBA2FA92F982F8827BC01CD01620F98
:10073000711D811D911D42E0660F771F881F991F53
:100740004A95D1F708958F929F92AF92BF92CF9220
:10075000DF92EF92FF926B017C010E947E034B01BE
:100760005C01C114D104E104F104B9F00E947E03DC
:10077000681979098A099B09683E734081059105CA
:1007800080F321E0C21AD108E108F10888EE880E52
:1007900083E0981EA11CB11CE4CFFF90EF90DF9086
:1007A000CF90BF90AF909F908F9008959091420608
:1007B00081E0911180E08093420608959091430674
:1007C00081E0911180E08093430608959091440662
:1007D00081E0911180E08093440608959091450650
:1007E00081E0911180E080934506089508959091ED
:1007F000360589130BC0E2ECF0E0E4919FEF909393
:100800003605E13049F028F0E23061F060E00C9408
:10081000B60010926E00FACF90916F009D7F90937A
:100820006F00F4CF909170009D7F9093700091E0E5
:100830009093B0009091B100987F94609093B10034
:100840001092B300E3CFAF92BF92CF92DF92EF92BC
:10085000FF920F931F93CF93DF936C017B018B016A
:10086000040F151FEB015E01AE18BF08C017D107BA
:1008700059F06991D601ED91FC910190F081E02D44
:10088000C6010995892B79F7C501DF91CF911F9199
:100890000F91FF90EF90DF90CF90BF90AF900895B1
:1008A000FC01538D448D252F30E0842F90E0821B76
:1008B000930B541710F0CF96089501970895FC01FB
:1008C000918D828D981761F0A28DAE0FBF2FB11D53
:1008D0005D968C91928D9F5F9F73928F90E00895AB
:1008E0008FEF9FEF0895FC01918D828D981731F065
:1008F000828DE80FF11D858D90E008958FEF9FEFB9
:100900000895FC01918D228D892F90E0805C9F4F8E
:10091000821B91098F739927089586E796E00E94BC
:10092000810421E0892B09F420E0822F089580E0E2
:1009300090E0892B29F00E948D0481110C94000015
:100940000895FC01A48DA80FB92FB11DA35ABF4F64
:100950002C91848D90E001968F739927848FA689BE
:10096000B7892C93A089B1898C91837080648C9312
:10097000938D848D981306C00288F389E02D8081C1
:100980008F7D80830895EF92FF920F931F93CF93F3
:10099000DF93EC0181E0888F9B8D8C8D98131AC0BA
:1009A000E889F989808185FF15C09FB7F894EE89A1
:1009B000FF896083E889F9898081837080648083FE
:1009C0009FBF81E090E0DF91CF911F910F91FF9049
:1009D000EF900895F62E0B8D10E00F5F1F4F0F73F1
:1009E0001127E02E8C8D8E110CC00FB607FCFACFAC
:1009F000E889F989808185FFF5CFCE010E94A104A5
:100A0000F1CFEB8DEC0FFD2FF11DE35AFF4FF0827C
:100A10009FB7F8940B8FEA89FB8980818062CFCFE2
:100A2000CF93DF93EC01888D8823B9F0AA89BB8925
:100A3000E889F9898C9185FD03C0808186FD0DC010
:100A40000FB607FCF7CF8C9185FFF2CF808185FF31
:100A5000EDCFCE010E94A104E9CFDF91CF9108959F
:100A60004F925F926F927F928F929F92AF92BF92BE
:100A7000CF92DF92EF92FF920F931F93CF93DF936A
:100A800000D0CDB7DEB78C0149832A83660F771F6C
:100A9000F801EA5AFF4FE080F180EE0CFF1CF801EC
:100AA000CF01801B910B8E159F0514F41192F8CF86
:100AB0008981F801E60FF71F81838A8180836801AD
:100AC00084E5C80ED11C60E0F60180810E94B6006A
:100AD0005801F2E5AF0EB11C480180E5880E911C6B
:100AE0001E141F040CF5E1E0EE1AF108F801EE0DFA
:100AF000FF1D6080F5015080F401408088E0782E71
:100B0000662D661F6627661F842D0E94B600660C40
:100B100061E0852D0E94B60060E0852D0E94B60040
:100B20007A947110EDCFDCCF61E0F60180810F90F7
:100B30000F90DF91CF911F910F91FF90EF90DF9079
:100B4000CF90BF90AF909F908F907F906F905F906D
:100B50004F900C94B600242FFC01EA5AFF4F4081BD
:100B60005181141615066CF46830710551F0FC01C2
:100B7000E60FF71F208B41E0460F70E060E00C9419
:100B800030050895CF92DF92EF92FF921F93CF939B
:100B9000DF937C016B01EB0183E0CC0FDD1F8A95B5
:100BA000E1F76096CE0DDF1D11E0199220E0412F94
:100BB000B601C7010E9430051F5F1930B1F7DF9100
:100BC000CF911F91FF90EF90DF90CF9008958F927B
:100BD0009F92AF92BF92CF92DF92EF92FF920F93CC
:100BE0001F93CF93DF938C01D62EC72EEC01C05BF1
:100BF000DF4F688379834C0182E5880E911CF401F4
:100C0000518340835801F4E5AF0EB11C8BE090E0B6
:100C1000F501918380837801F6E5EF0EF11C88E001
:100C200090E0F7019183808361E08D2D0E94E400C4
:100C300061E0F40180810E94E40061E0F5018081BF
:100C40000E94E40061E0F50180810E94B600D88234
:100C5000C982F80170961192EC17FD07E1F7D0E018
:100C6000C0E0F70180819181C817D90784F520E0A1
:100C70004FE0BE01C8010E943005F70180819181DB
:100C8000C817D90734F427E04BE0BE01C8010E9421
:100C9000300520E049E0BE01C8010E943005F7019F
:100CA00080819181C817D90724F4BE01C8010E9430
:100CB000C205F70180819181C817D90734F420E07B
:100CC0004CE0BE01C8010E9430052196CACFDF91D9
:100CD000CF911F910F91FF90EF90DF90CF90BF9039
:100CE000AF909F908F900895FC0101900020E9F74C
:100CF0003197AF01481B590BBC0186E796E00C9475
:100D000023040C947406CF93DF930E947406EC01C5
:100D100089E595E00E9474068C0F9D1FDF91CF91AD
:100D200008951F920F920FB60F9211242F933F93A5
:100D30008F939F93AF93BF9380915D0690915E06D2
:100D4000A0915F06B091600630915C0623E0230F0E
:100D50002D3758F50196A11DB11D20935C06809397
:100D60005D0690935E06A0935F06B0936006809147
:100D7000610690916206A0916306B09164060196A7
:100D8000A11DB11D8093610690936206A093630636
:100D9000B0936406BF91AF919F918F913F912F9136
:100DA0000F900FBE0F901F90189526E8230F029604
:100DB000A11DB11DD2CF1F920F920FB60F92112419
:100DC0002F933F934F935F936F937F938F939F9353
:100DD000AF93BF93EF93FF93E0910201F091030172
:100DE0000995FF91EF91BF91AF919F918F917F9165
:100DF0006F915F914F913F912F910F900FBE0F9088
:100E00001F9018951F920F920FB60F9211242F93D7
:100E10003F934F935F936F937F938F939F93AF9382
:100E2000BF93EF93FF93E0910001F09101010995C9
:100E3000FF91EF91BF91AF919F918F917F916F91B2
:100E40005F914F913F912F910F900FBE0F901F9088
:100E500018951F920F920FB60F9211242F933F9364
:100E60004F935F936F937F938F939F93AF93BF93B2
:100E7000EF93FF9380916A0690916B06A0916C06A8
:100E8000B0916D06892B8A2B8B2BD1F19091650641
:100E9000E0916606F09167068081892780838091C2
:100EA0006A0690916B06A0916C06B0916D061816BB
:100EB00019061A061B069CF480916A0690916B062F
:100EC000A0916C06B0916D060197A109B1098093BC
:100ED0006A0690936B06A0936C06B0936D06FF9123
:100EE000EF91BF91AF919F918F917F916F915F91A2
:100EF0004F913F912F910F900FBE0F901F9018951B
:100F0000809136050E94F703EACF1F920F920FB629
:100F10000F9211242F933F934F935F936F937F937F
:100F20008F939F93AF93BF93EF93FF9386E796E0E2
:100F30000E94A104FF91EF91BF91AF919F918F917A
:100F40007F916F915F914F913F912F910F900FBEC5
:100F50000F901F9018951F920F920FB60F921124A9
:100F60002F938F939F93EF93FF93E0918606F091D9
:100F700087068081E0918C06F0918D0682FD1BC072
:100F8000908180918F068F5F8F73209190068217DA
:100F900041F0E0918F06F0E0EA58F94F958F809389
:100FA0008F06FF91EF919F918F912F910F900FBE20
:100FB0000F901F9018958081F4CFCF92DF92EF921F
:100FC000FF920F931F93E82FF92F05C001501109CD
:100FD0002109310961F1908196239417B9F305C075
:100FE000015011092109310911F1908196239413BF
:100FF000F7CFC12CD12CE12CF12C0AC08FEFC81AED
:10100000D80AE80AF80A0C151D052E053F0579F0E7
:1010100080818623841791F36C2D7D2D8E2D9F2D3D
:101020001F910F91FF90EF90DF90CF90089560E0B7
:1010300070E080E090E01F910F91FF90EF90DF90C3
:10104000CF900895E6E7F6E01382128288EE93E0EF
:10105000A0E0B0E084839583A683B7838BE495E01A
:101060009183808385EC90E09587848784EC90E081
:101070009787868780EC90E0918B808B81EC90E065
:10108000938B828B82EC90E0958B848B86EC90E046
:10109000978B868B118E128E138E148E4CE050E03F
:1010A0006DE070E08BE697E00E94E70546E050E0D7
:1010B00067E070E083E197E00C94E705CF93DF935E
:1010C000CDB7DEB728970FB6F894DEBF0FBECDBF01
:1010D000789484B5826084BD84B5816084BD85B513
:1010E000826085BD85B5816085BD80916E0081601F
:1010F00080936E00109281008091810082608093C5
:1011000081008091810081608093810080918000C6
:101110008160809380008091B10084608093B100F1
:101120008091B00081608093B00080917A008460EB
:1011300080937A0080917A00826080937A00809117
:101140007A00816080937A0080917A008068809331
:101150007A001092C100E0918606F091870682E045
:101160008083E0918206F09183061082E0918406EC
:10117000F09185068FEC808310928E06E0918A06AE
:10118000F0918B0686E08083E0918806F0918906D5
:10119000808180618083E0918806F091890680815A
:1011A00088608083E0918806F0918906808180685C
:1011B0008083E0918806F091890680818F7D80830D
:1011C00061E087E00E94E40061E088E00E94E400C2
:1011D00060E089E00E94E40062E082E00E94E400B6
:1011E00086ED93E090930101809300018091690066
:1011F0008C7F826080936900E89A62E083E00E94BD
:10120000E4008EED93E090930301809302018091BE
:101210006900837F886080936900E99A62E084E0D6
:101220000E94E40062E085E00E94E4008091C10732
:101230009091C2071816190644F421E04CE070E0C2
:1012400060E08BE697E00E9430058091C1079091A5
:10125000C2071816190644F42FE04AE070E060E077
:101260008BE697E00E9430058091C1079091C207FC
:101270001816190634F470E060E08BE697E00E94DF
:10128000C2058091690790916A071816190644F4FF
:1012900021E04CE070E060E083E197E00E943005DF
:1012A0008091690790916A071816190644F42FE097
:1012B0004AE070E060E083E197E00E9430058091B1
:1012C000690790916A071816190634F470E060E017
:1012D00083E197E00E94C2051092490610924806E9
:1012E0008CE595E00E94810673E0272E312C8091D9
:1012F0005A0690915B06019741F448EC50E060E09B
:1013000070E08AEF90E00E94200180915806909151
:101310005906892B09F0DBC05FE3C52E55E0D52EB9
:10132000AA24A394B12CF601019111916F019801A7
:101330003327F901E458FF4F8491F901E057FF4F3B
:101340008490F901E255FF4F9490911019C002303A
:10135000110509F096C289E695E00E948106809108
:10136000560690915706FC01EE0FFF1FE25BF94F06
:1013700011830083019690935706809356060EC002
:1013800081110E948D00E92DF0E0EE0FFF1FE8595A
:10139000FF4FA591B491EC918E22C9F237E4C316A8
:1013A00035E0D30609F0BFCF8091560690915706DD
:1013B000049709F068C0109257061092560688E00C
:1013C000E7E3F5E0DE01119601900D928A95E1F7D1
:1013D000EEE4F6E0DE01119686E596E0419151914A
:1013E0002D913D914217530709F061C28E179F0757
:1013F000A9F78CE296E00E94830681E090E090934A
:101400005906809358063FC00430110581F48DE6DB
:1014100095E00E9481068091560690915706FC0146
:10142000EE0FFF1FE25BF94FB182A082A3CF053020
:10143000110509F0B3CF8FE695E00E9481068091F7
:10144000560690915706FC01EE0FFF1FE25BF94F25
:10145000318220828FCF80914E0690914F06019766
:1014600091F48091500690915106019761F480911A
:10147000520690915306019731F480915406909151
:101480005506019799F060E971E080E090E00E94D4
:10149000A30380E090E0892B09F429CF0E948D04FA
:1014A000882309F424CF0E94000021CF81E995E030
:1014B0000E94830685EA95E00E94830610925B06EF
:1014C00010925A0682EB95E00E948306DCCF809151
:1014D0004A0690914B06892B51F486ED95E00E94C7
:1014E000830681E090E090934B0680934A0660E08B
:1014F00087E00E94B600C1010197F1F761E087E043
:101500000E94B60083E290E00197F1F760E087E087
:101510000E94B600E9E9F0E06491E7EBF0E0849125
:10152000E82FF0E0EE0FFF1FE859FF4F85919491EF
:1015300000E412E42FE030E0462F0E94DD07611541
:1015400071058105910529F06F5F7F4F8F4F9F4F88
:101550009F700E94840D26E933E44BE05DE30E9416
:10156000100E20E030E040E05FE30E94100E0E9489
:101570004C0D615071096630710588F585EE95E076
:101580000E94810688EF95E00E9481068091E80420
:101590009091E9040196843091050CF0A1C09093DC
:1015A000E9048093E8048091E8049091E904813093
:1015B000910509F098C084E091E090933305809301
:1015C000320583E690E0909335058093340587E0FB
:1015D00096E00E948106109249061092480680E427
:1015E00080937C0080917A00806480937A0080915F
:1015F0007A0086FDFCCF6091780070917900072E0B
:10160000000C880B990B0E94840D20E030EC4FE712
:1016100054E40E94DA0C20E030E040E05FE30E94F6
:101620006D0C9B01AC016091480670914906809158
:101630003405909135056817790724F01092490612
:1016400010924806E0913205F091330580904806EB
:1016500090904906C401880F991FE80FF91F008177
:101660001181C280D38060E070E080E89FE30E9437
:101670006D0C2B013C011C141D040CF054C089E3BB
:1016800098E0B6010E947D0E072E000C880B990B86
:101690000E94840DA30192010E94100E2B013C01B7
:1016A0008091460690914706019690934706809355
:1016B00046066AE070E00E947D0E8A30910508F0CF
:1016C0004DC0FC01EA59F44F0C94D20E0B0CAA0B3E
:1016D000E80BED0BF20BF70BFC0B010CE80B060C07
:1016E00081E090E05CCF029779F480EF93E09093F3
:1016F0003305809332058EE390E090933505809317
:10170000340585E196E065CF80E992E0909333055A
:101710008093320588E590E09093350580933405F9
:101720008FE196E056CF662777276C197D0989E30C
:1017300098E00E947D0E072E000C880B990B0E94EA
:10174000840DA30192010E94100E20E030E040ECD5
:101750005FE3A2CFE2E2EE2EE5E0FE2E01151105D9
:1017600009F05EC040E0B8018BE697E00E94AB054F
:101770000F5F1F4F08301105A9F788E00E94F7039B
:10178000E2E08E0E911C9092490680924806C301B9
:10179000B2010E94530D0E94A30310E000E040E05C
:1017A000B8018BE697E00E94AB050F5F1F4F083032
:1017B0001105A9F788E00E94F7032DEC3CEC4CE4FE
:1017C0005DE3C301B2010E94100E0E94530D5FCE73
:1017D0007AE1E72E75E0F72EC1CF62E1E62E65E0F3
:1017E000F62EBCCF5AE0E52E55E0F52EB7CF42E0FD
:1017F000E42E45E0F42EB2CF3AEFE32E34E0F32EA0
:10180000ADCF22EFE22E24E0F22EA8CF9AEEE92E01
:1018100094E0F92EA3CF8AE2E82E85E0F82E9ECF41
:101820005701D12CC12CF50141915F01B6018BE626
:1018300097E00E94AB05FFEFCF1ADF0A28E0C2163F
:10184000D10489F7D12CC12C40E0B60183E197E0A7
:101850000E94AB053FEFC31AD30A88E0C816D10433
:1018600099F726E636E646E65FE3C301B2010E9439
:10187000100E0E94530DAB01BC01C8010E94200153
:101880007FCF0330110509F0BFCD8BE695E00E94B4
:1018900081068091560690915706FC01EE0FFF1FBE
:1018A000E25BF94F24E030E03183208363CD809107
:1018B0005A0690915B06019709F4CDCD81E795E03A
:1018C0000E94830681E090E090934D0680934C0641
:1018D00090935B0680935A06D6CD5058BB27AA2713
:1018E0000E94850C0C94D60D0E94C80D38F00E9401
:1018F000CF0D20F039F49F3F19F426F40C94C50D58
:101900000EF4E095E7FB0C94BF0DE92F0E94E70D64
:1019100058F3BA17620773078407950720F079F424
:10192000A6F50C94090E0EF4E0950B2EBA2FA02DFF
:101930000B01B90190010C01CA01A0011124FF277C
:10194000591B99F0593F50F4503E68F11A16F04077
:10195000A22F232F342F4427585FF3CF4695379576
:101960002795A795F0405395C9F77EF41F16BA0B3B
:10197000620B730B840BBAF09150A1F0FF0FBB1FE9
:10198000661F771F881FC2F70EC0BA0F621F731F32
:10199000841F48F4879577956795B795F7959E3F8F
:1019A00008F0B0CF9395880F08F09927EE0F979520
:1019B000879508950E94EE0C0C94D60D0E94CF0DD1
:1019C00058F00E94C80D40F029F45F3F29F00C94B4
:1019D000BF0D51110C940A0E0C94C50D0E94E70D19
:1019E00068F39923B1F3552391F3951B550BBB274E
:1019F000AA2762177307840738F09F5F5F4F220F93
:101A0000331F441FAA1FA9F335D00E2E3AF0E0E889
:101A100032D091505040E695001CCAF72BD0FE2FD3
:101A200029D0660F771F881FBB1F26173707480767
:101A3000AB07B0E809F0BB0B802DBF01FF2793581F
:101A40005F4F3AF09E3F510578F00C94BF0D0C9417
:101A50000A0E5F3FE4F3983ED4F386957795679539
:101A6000B795F7959F5FC9F7880F911D9695879554
:101A700097F90895E1E0660F771F881FBB1F621773
:101A800073078407BA0720F0621B730B840BBA0B31
:101A9000EE1F88F7E09508950E94530D6894B111E8
:101AA0000C940A0E08950E94EF0D88F09F5798F04D
:101AB000B92F9927B751B0F0E1F0660F771F881F53
:101AC000991F1AF0BA95C9F714C0B13091F00E946D
:101AD000090EB1E008950C94090E672F782F88271E
:101AE000B85F39F0B93FCCF3869577956795B39594
:101AF000D9F73EF490958095709561957F4F8F4F03
:101B00009F4F0895E89409C097FB3EF49095809507
:101B1000709561957F4F8F4F9F4F9923A9F0F92FB3
:101B200096E9BB279395F695879577956795B79531
:101B3000F111F8CFFAF4BB0F11F460FF1BC06F5F17
:101B40007F4F8F4F9F4F16C0882311F096E911C029
:101B5000772321F09EE8872F762F05C0662371F04A
:101B600096E8862F70E060E02AF09A95660F771F5E
:101B7000881FDAF7880F9695879597F9089597F952
:101B80009F6780E870E060E008959FEF80EC089523
:101B900000240A941616170618060906089500244C
:101BA0000A9412161306140605060895092E0394C6
:101BB000000C11F4882352F0BB0F40F4BF2B11F43A
:101BC00060FF04C06F5F7F4F8F4F9F4F089557FD99
:101BD0009058440F551F59F05F3F71F04795880F9B
:101BE00097FB991F61F09F3F79F087950895121632
:101BF00013061406551FF2CF4695F1DF08C01616DE
:101C000017061806991FF1CF86957105610508948E
:101C10000895E894BB2766277727CB0197F90895A5
:101C20000E94230E0C94D60D0E94C80D38F00E941D
:101C3000CF0D20F0952311F00C94BF0D0C94C50D21
:101C400011240C940A0E0E94E70D70F3959FC1F3C6
:101C5000950F50E0551F629FF001729FBB27F00D5A
:101C6000B11D639FAA27F00DB11DAA1F649F6627AF
:101C7000B00DA11D661F829F2227B00DA11D621FFE
:101C8000739FB00DA11D621F839FA00D611D221FB8
:101C9000749F3327A00D611D231F849F600D211D9C
:101CA000822F762F6A2F11249F5750409AF0F1F01F
:101CB00088234AF0EE0FFF1FBB1F661F771F881F88
:101CC00091505040A9F79E3F510580F00C94BF0DF4
:101CD0000C940A0E5F3FE4F3983ED4F38695779513
:101CE0006795B795F795E7959F5FC1F7FE2B880F2E
:101CF000911D9695879597F9089597FB072E16F4F1
:101D0000009407D077FD09D00E94E30E07FC05D0B0
:101D10003EF4909581959F4F0895709561957F4F02
:101D20000895A1E21A2EAA1BBB1BFD010DC0AA1F1C
:101D3000BB1FEE1FFF1FA217B307E407F50720F034
:101D4000A21BB30BE40BF50B661F771F881F991FAF
:101D50001A9469F760957095809590959B01AC01F8
:101D6000BD01CF010895052E97FB1EF400940E943B
:101D7000CA0E57FD07D00E94910E07FC03D04EF407
:101D80000C94CA0E50954095309521953F4F4F4F7A
:101D90005F4F089590958095709561957F4F8F4F17
:101DA0009F4F0895EE0FFF1F0590F491E02D0994C9
:101DB0000E94F70EA59F900DB49F900DA49F800DDB
:101DC000911D11240895AA1BBB1B51E107C0AA1F36
:101DD000BB1FA617B70710F0A61BB70B881F991FCC
:101DE0005A95A9F780959095BC01CD010895A29FC1
:101DF000B001B39FC001A39F700D811D1124911DDF
:101E0000B29F700D811D1124911D0895F894FFCF8C
:101E1000F603F60393020400EE0108000B0208002B
:101E20004B0204000B020800EE010800B801040098
:101E3000B80108000B020800930204004B020800DE
:101E40000B020800EE01FCFF0B0208004B0204002D
:101E5000930204000B020400B8010400B80108005A
:101E6000B8010400EE0108000B0208004B02FCFF61
:101E7000BA0208007003040010030800BA02080048
:101E80009302FCFF0B020800930204004B020800BF
:101E90000B020800EE010400EE0108000B0208002E
:101EA0004B020400930204000B020400B80104007A
:101EB000B80104000000040093020400EE010800D1
:101EC0000B0208004B0204000B020800EE010800A0
:101ED000B8010400B80108000B02080093020400D6
:101EE0004B0208000B020800EE01FCFF0B02080089
:101EF0004B020400930204000B020400B80104002A
:101F0000B8010800B8010400EE0108000B02080047
:101F10004B02FCFFBA020800700304001003080023
:101F2000BA0208009302FCFF0B02080093020400AF
:101F30004B0208000B020800EE010400EE0108004D
:101F40000B0208004B020400930204000B02040081
:101F5000B8010400B801040000000400930202006C
:101F60000B0202004B020200EE0102000B02020013
:101F7000B80102009F010200EE0104000000080009
:101F8000930202000B0202004B020200EE0102006B
:101F90000B02040093020400700302003F030200DE
:101FA00000000200000004000000080037010800E3
:101FB0004A01FCFF00000800720108008801FCFFD4
:101FC00000000800370108004A01F8FF720108000C
:101FD0008801F8FF0B020800EE01F8FF4A01080033
:101FE0008801F8FFEE010800D2010200B801F0FFFD
:101FF0008801F0FF4A01F0FF2601F0FF4A010200CC
:102000000000040000000800370104004A01FCFF42
:1020100000000800720108008801FCFF00000800B1
:10202000370108004A01F8FF720108008801F8FF33
:102030000B020800EE01F8FF88010800EE01F8FF2E
:10204000930208006E0201004B020200000004002F
:1020500000000800370108004A01FCFF00000800EA
:10206000720108008801FCFF000008003701080029
:102070004A01F8FF720108008801F8FF0B0208000E
:10208000EE01F8FF4A0108008801F8FFEE010800A0
:10209000D2010200B801F0FF8801F0FF4A01F0FF11
:1020A0002601F0FF4A01FCFF0000040000000400CC
:1020B0009302F8FF4B020800EE01F8FFB801080098
:1020C0008801F8FF4A01F8FFD2011000B801F8FFBB
:1020D000D2011000B801F8FFD2011000B801F8FFDA
:1020E000D2011000B801F8FF8801F0FF4A01F0FFAB
:1020F0002601F0FF4A0110004A0110004A010200C7
:102100004A0104004A0104005D0104008801040042
:10211000880104005D0104004A0104002601040056
:102120000601040006010400260104004A0104001F
:102130004A01FCFF26010800260102004A010400B2
:102140004A0104005D0104008801040088010400C4
:102150005D0104004A010400260104000601040098
:1021600006010400260104004A0104002601FCFFC8
:1021700006010800060102002601040026010400F1
:102180004A01040006010400260104004A01080077
:102190005D0108004A010400060104002601040054
:1021A0004A0108005D0108004A01040026010400FC
:1021B0000601040026010400C40002004A010400D4
:1021C0004A0104005D010400880104008801040044
:1021D0005D0104004A010400260104000601040018
:1021E00006010400260104004A0104002601FCFF48
:1021F00006010800060102000100FFBBD7EFEFEF68
:10220000EFFFFFC7D7C7CFD7DBFFFFC3DBDBC3DBE6
:10221000DBFFFFC3DBDBC3DFDFDFC3DFDFC3FBFBD2
:10222000C3FFFFE7E7FFFFFFFFFFFF83EFEFEFEFE6
:10223000EFFFC3DFDFC3DFDFC3FFFFDFDFDFDFDF92
:10224000C3FF04016300FF01000400030002000259
:102250000003000400050000000000C30423045034
:1022600004100581045F0473040D0A00456E746553
:102270007220636F64653A2000320034003100330D
:10228000000A436F6465206465636C696E65642150
:10229000205374617274696E6720616C61726D2184
:1022A000000A416C61726D206465616374697661D6
:1022B0007465642100456E74657220436F64653AED
:1022C00020000A44697361626C696E6720636F6401
:1022D00065206465636C696E6564212054727920A1
:1022E000616761696E005465747269732070617210
:1022F00074790A210053656E736F7220616374698B
:1023000076617465643A2000536F6E67206368617C
:102310006E6765643A200054657472697320506179
:102320007274790A006F6465746F6A6F790A00507D
:10233000696E6B2050616E74686572000A436F6449
:0C234000652061636365707465642100B2
:107E0000112484B714BE81FFF0D085E080938100F7
:107E100082E08093C00088E18093C10086E0809377
:107E2000C20080E18093C4008EE0C9D0259A86E02C
:107E300020E33CEF91E0309385002093840096BBD3
:107E4000B09BFECF1D9AA8958150A9F7CC24DD24C4
:107E500088248394B5E0AB2EA1E19A2EF3E0BF2EE7
:107E6000A2D0813461F49FD0082FAFD0023811F036
:107E7000013811F484E001C083E08DD089C08234E0
:107E800011F484E103C0853419F485E0A6D080C0E4
:107E9000853579F488D0E82EFF2485D0082F10E0AE
:107EA000102F00270E291F29000F111F8ED06801E7
:107EB0006FC0863521F484E090D080E0DECF843638
:107EC00009F040C070D06FD0082F6DD080E0C81688
:107ED00080E7D80618F4F601B7BEE895C0E0D1E017
:107EE00062D089930C17E1F7F0E0CF16F0E7DF06D8
:107EF00018F0F601B7BEE89568D007B600FCFDCFD4
:107F0000A601A0E0B1E02C9130E011968C91119780
:107F100090E0982F8827822B932B1296FA010C0160
:107F200087BEE89511244E5F5F4FF1E0A038BF0790
:107F300051F7F601A7BEE89507B600FCFDCF97BE46
:107F4000E89526C08437B1F42ED02DD0F82E2BD052
:107F50003CD0F601EF2C8F010F5F1F4F84911BD097
:107F6000EA94F801C1F70894C11CD11CFA94CF0C13
:107F7000D11C0EC0853739F428D08EE10CD085E9AC
:107F80000AD08FE07ACF813511F488E018D01DD067
:107F900080E101D065CF982F8091C00085FFFCCF94
:107FA0009093C60008958091C00087FFFCCF809118
:107FB000C00084FD01C0A8958091C6000895E0E648
:107FC000F0E098E1908380830895EDDF803219F02E
:107FD00088E0F5DFFFCF84E1DECF1F93182FE3DFCA
:107FE0001150E9F7F2DF1F91089580E0E8DFEE27F6
:047FF000FF270994CA
:027FFE00040479
:00000001FF
